{
  "contractName": "Airdrop",
  "abi": [
    {
      "inputs": [
        {
          "internalType": "address",
          "name": "_token",
          "type": "address"
        },
        {
          "internalType": "bytes32",
          "name": "_workflowHash",
          "type": "bytes32"
        }
      ],
      "stateMutability": "nonpayable",
      "type": "constructor"
    },
    {
      "anonymous": false,
      "inputs": [
        {
          "indexed": false,
          "internalType": "uint256",
          "name": "requestId",
          "type": "uint256"
        }
      ],
      "name": "GithubWorkflowRequestEvent",
      "type": "event"
    },
    {
      "inputs": [],
      "name": "claimedTotal",
      "outputs": [
        {
          "internalType": "uint256",
          "name": "",
          "type": "uint256"
        }
      ],
      "stateMutability": "view",
      "type": "function",
      "constant": true
    },
    {
      "inputs": [
        {
          "internalType": "string",
          "name": "_name",
          "type": "string"
        }
      ],
      "name": "getGithubWorkflowFee",
      "outputs": [
        {
          "internalType": "uint256",
          "name": "",
          "type": "uint256"
        }
      ],
      "stateMutability": "view",
      "type": "function",
      "constant": true
    },
    {
      "inputs": [
        {
          "internalType": "uint256",
          "name": "_id",
          "type": "uint256"
        }
      ],
      "name": "getGithubWorkflowRequest",
      "outputs": [
        {
          "internalType": "bytes32",
          "name": "fileHash",
          "type": "bytes32"
        },
        {
          "internalType": "address",
          "name": "account",
          "type": "address"
        },
        {
          "internalType": "uint256",
          "name": "fee",
          "type": "uint256"
        },
        {
          "internalType": "string",
          "name": "name",
          "type": "string"
        },
        {
          "internalType": "string",
          "name": "githubUserId",
          "type": "string"
        },
        {
          "internalType": "bool",
          "name": "fulfilled",
          "type": "bool"
        }
      ],
      "stateMutability": "view",
      "type": "function",
      "constant": true
    },
    {
      "inputs": [
        {
          "internalType": "string",
          "name": "_name",
          "type": "string"
        },
        {
          "internalType": "uint256",
          "name": "_amount",
          "type": "uint256"
        }
      ],
      "name": "setGithubWorkflowFee",
      "outputs": [],
      "stateMutability": "nonpayable",
      "type": "function"
    },
    {
      "inputs": [
        {
          "internalType": "string",
          "name": "_name",
          "type": "string"
        },
        {
          "internalType": "bytes32",
          "name": "_hash",
          "type": "bytes32"
        }
      ],
      "name": "setGithubWorkflowHash",
      "outputs": [],
      "stateMutability": "nonpayable",
      "type": "function"
    },
    {
      "inputs": [],
      "name": "token",
      "outputs": [
        {
          "internalType": "contract CryptoActionsToken",
          "name": "",
          "type": "address"
        }
      ],
      "stateMutability": "view",
      "type": "function",
      "constant": true
    },
    {
      "inputs": [
        {
          "internalType": "string",
          "name": "_githubUserId",
          "type": "string"
        }
      ],
      "name": "requestAirdrop",
      "outputs": [],
      "stateMutability": "payable",
      "type": "function",
      "payable": true
    },
    {
      "inputs": [
        {
          "internalType": "uint256",
          "name": "_requestId",
          "type": "uint256"
        },
        {
          "internalType": "uint256",
          "name": "_amount",
          "type": "uint256"
        },
        {
          "internalType": "address",
          "name": "_to",
          "type": "address"
        }
      ],
      "name": "fulfillAirdrop",
      "outputs": [],
      "stateMutability": "nonpayable",
      "type": "function"
    }
  ],
  "bytecode": "0x608060405234801561001057600080fd5b50604051610fa6380380610fa683398101604081905261002f91610102565b600380546001600160a01b0319166001600160a01b038416179055604080518082019091526007815266061697264726f760cc1b602082015261007c90339083662386f26fc10000610083565b5050610177565b6040518060600160405280838152602001856001600160a01b03168152602001828152506000846040516100b7919061013c565b908152604080516020928190038301902083518155918301516001830180546001600160a01b0319166001600160a01b03909216919091179055919091015160029091015550505050565b6000806040838503121561011557600080fd5b82516001600160a01b038116811461012c57600080fd5b6020939093015192949293505050565b6000825160005b8181101561015d5760208186018101518583015201610143565b8181111561016c576000828501525b509190910192915050565b610e20806101866000396000f3fe60806040526004361061007b5760003560e01c80639e3743d31161004e5780639e3743d314610108578063c6fc65c314610128578063d3b7cd991461013e578063fc0c546a1461017057600080fd5b80630f2965e31461008057806337e7397b146100a25780635f27e0d3146100c2578063789e3644146100f5575b600080fd5b34801561008c57600080fd5b506100a061009b366004610afe565b6101a8565b005b3480156100ae57600080fd5b506100a06100bd366004610b63565b61025e565b3480156100ce57600080fd5b506100e26100dd366004610abc565b6104cf565b6040519081526020015b60405180910390f35b6100a0610103366004610abc565b6104fc565b34801561011457600080fd5b506100a0610123366004610afe565b610560565b34801561013457600080fd5b506100e260055481565b34801561014a57600080fd5b5061015e610159366004610b4a565b61060a565b6040516100ec96959493929190610c9c565b34801561017c57600080fd5b50600354610190906001600160a01b031681565b6040516001600160a01b0390911681526020016100ec565b82828080601f01602080910402602001604051908101604052809392919081815260200183838082843760009201829052506040519093506101ed9250849150610be4565b90815260405190819003602001902060010154336001600160a01b03909116146102325760405162461bcd60e51b815260040161022990610cf1565b60405180910390fd5b8160008585604051610245929190610bd4565b9081526040519081900360200190206002015550505050565b600083815260016020526040808220905185929161027b91610c00565b90815260405190819003602001902060010154336001600160a01b03909116146102f95760405162461bcd60e51b815260206004820152602960248201527f4f6e6c7920776f726b666c6f77206163636f756e7420726573706f6e6420746f604482015268103932b8bab2b9ba1760b91b6064820152608401610229565b60008181526001602052604090206002015460ff16156103675760405162461bcd60e51b815260206004820152602360248201527f526571756573742068617320616c7265616479206265656e2066756c66696c6c60448201526232b21760e91b6064820152608401610229565b6000818152600160208190526040808320600201805460ff19168317905586835291829020915160049261039c920190610c00565b9081526020016040518091039020546000146103fa5760405162461bcd60e51b815260206004820152601860248201527f41697264726f7020616c726561647920636c61696d65642e00000000000000006044820152606401610229565b826004600160008781526020019081526020016000206001016040516104209190610c00565b9081526020016040518091039020600082825461043d9190610d36565b909155505060035460405163a9059cbb60e01b81526001600160a01b038481166004830152602482018690529091169063a9059cbb90604401602060405180830381600087803b15801561049057600080fd5b505af11580156104a4573d6000803e3d6000fd5b505050506040513d601f19601f820116820180604052508101906104c89190610a93565b5050505050565b60008083836040516104e2929190610bd4565b908152602001604051809103902060020154905092915050565b61055b60405180604001604052806007815260200166061697264726f760cc1b81525083838080601f01602080910402602001604051908101604052809392919081815260200183838082843760009201919091525061080192505050565b505050565b82828080601f01602080910402602001604051908101604052809392919081815260200183838082843760009201829052506040519093506105a59250849150610be4565b90815260405190819003602001902060010154336001600160a01b03909116146105e15760405162461bcd60e51b815260040161022990610cf1565b81600085856040516105f4929190610bd4565b9081526040519081900360200190205550505050565b6000806000606080600080600160008981526020019081526020016000206000016040516106389190610c00565b90815260408051602092819003830181205460008b8152600190945291832091929161066391610c00565b908152604080516020928190038301812060019081015460008d8152919094529182206001600160a01b039093169261069b91610c00565b908152604080516020928190038301902060029081015460008d815260019485905292909220908101548154929391929183019160ff9091169083906106e090610d7e565b80601f016020809104026020016040519081016040528092919081815260200182805461070c90610d7e565b80156107595780601f1061072e57610100808354040283529160200191610759565b820191906000526020600020905b81548152906001019060200180831161073c57829003601f168201915b5050505050925081805461076c90610d7e565b80601f016020809104026020016040519081016040528092919081815260200182805461079890610d7e565b80156107e55780601f106107ba576101008083540402835291602001916107e5565b820191906000526020600020905b8154815290600101906020018083116107c857829003601f168201915b5050505050915095509550955095509550955091939550919395565b600080836040516108129190610be4565b9081526020016040518091039020600201543410156108735760405162461bcd60e51b815260206004820152601c60248201527f496e73756666696369616e74206f7261636c65207061796d656e742e000000006044820152606401610229565b6000836040516108839190610be4565b908152604051908190036020018120600101546001600160a01b0316906108fc906000906108b2908790610be4565b90815260405190819003602001812060020154801590920291906000818181858888f193505050501580156108eb573d6000803e3d6000fd5b50600280549060006108fc83610db9565b9091555050604080516060810182528481526020808201859052600082840181905260025481526001825292909220815180519293919261094092849201906109b1565b50602082810151805161095992600185019201906109b1565b506040918201516002918201805460ff19169115159190911790555490519081527fb085ee00d6acecd7b561fb9098042d2dadf5ddfaca876c3d6591fe7a629e3cf99060200160405180910390a15060025492915050565b8280546109bd90610d7e565b90600052602060002090601f0160209004810192826109df5760008555610a25565b82601f106109f857805160ff1916838001178555610a25565b82800160010185558215610a25579182015b82811115610a25578251825591602001919060010190610a0a565b50610a31929150610a35565b5090565b5b80821115610a315760008155600101610a36565b60008083601f840112610a5c57600080fd5b50813567ffffffffffffffff811115610a7457600080fd5b602083019150836020828501011115610a8c57600080fd5b9250929050565b600060208284031215610aa557600080fd5b81518015158114610ab557600080fd5b9392505050565b60008060208385031215610acf57600080fd5b823567ffffffffffffffff811115610ae657600080fd5b610af285828601610a4a565b90969095509350505050565b600080600060408486031215610b1357600080fd5b833567ffffffffffffffff811115610b2a57600080fd5b610b3686828701610a4a565b909790965060209590950135949350505050565b600060208284031215610b5c57600080fd5b5035919050565b600080600060608486031215610b7857600080fd5b833592506020840135915060408401356001600160a01b0381168114610b9d57600080fd5b809150509250925092565b60008151808452610bc0816020860160208601610d4e565b601f01601f19169290920160200192915050565b8183823760009101908152919050565b60008251610bf6818460208701610d4e565b9190910192915050565b600080835481600182811c915080831680610c1c57607f831692505b6020808410821415610c3c57634e487b7160e01b86526022600452602486fd5b818015610c505760018114610c6157610c8e565b60ff19861689528489019650610c8e565b60008a81526020902060005b86811015610c865781548b820152908501908301610c6d565b505084890196505b509498975050505050505050565b86815260018060a01b038616602082015284604082015260c060608201526000610cc960c0830186610ba8565b8281036080840152610cdb8186610ba8565b91505082151560a0830152979650505050505050565b60208082526025908201527f4f6e6c7920776f726b666c6f77206163636f756e742063616e206368616e6765604082015264103332b29760d91b606082015260800190565b60008219821115610d4957610d49610dd4565b500190565b60005b83811015610d69578181015183820152602001610d51565b83811115610d78576000848401525b50505050565b600181811c90821680610d9257607f821691505b60208210811415610db357634e487b7160e01b600052602260045260246000fd5b50919050565b6000600019821415610dcd57610dcd610dd4565b5060010190565b634e487b7160e01b600052601160045260246000fdfea2646970667358221220dfd68524ed5db631d4f795450acc10042cbe88d813e36eaddd46f67f5ac9f3ed64736f6c63430008070033",
  "immutableReferences": {},
  "source": "// SPDX-License-Identifier: MIT\npragma solidity 0.8.7;\n\nimport '../GithubWorkflowClient.sol';\nimport './CryptoActionsToken.sol';\n\ncontract Airdrop is GithubWorkflowClient {\n  CryptoActionsToken public token;\n\n  mapping(string => uint256) claimed;\n  uint256 public claimedTotal;\n\n  constructor(address _token, bytes32 _workflowHash) {\n    token = CryptoActionsToken(_token);\n    registerGithubWorkflow(msg.sender, 'airdrop', _workflowHash, 10000000000000000);\n  }\n\n  function requestAirdrop(string calldata _githubUserId) payable public {\n    githubWorkflowRequest('airdrop', _githubUserId);\n  }\n\n  function fulfillAirdrop(uint256 _requestId, uint256 _amount, address _to) public githubWorkflowResponse(_requestId) {\n    require(claimed[githubWorkflowRequests[_requestId].githubUserId] == 0, 'Airdrop already claimed.');\n    claimed[githubWorkflowRequests[_requestId].githubUserId] += _amount;\n    token.transfer(_to, _amount);\n  }\n}",
  "sourcePath": "/home/mkt/Projects/cryptoactions/contracts/src/token/Airdrop.sol",
  "compiler": {
    "name": "solc",
    "version": "0.8.7+commit.e28d00a7.Emscripten.clang"
  },
  "schemaVersion": "3.4.3",
  "updatedAt": "2021-09-11T16:23:45.986Z",
  "networkType": "ethereum",
  "devdoc": {
    "kind": "dev",
    "methods": {},
    "version": 1
  },
  "userdoc": {
    "kind": "user",
    "methods": {},
    "version": 1
  }
}