{
  "contractName": "Airdrop",
  "abi": [
    {
      "inputs": [
        {
          "internalType": "address",
          "name": "_token",
          "type": "address"
        },
        {
          "internalType": "string",
          "name": "_workflowHash",
          "type": "string"
        }
      ],
      "stateMutability": "nonpayable",
      "type": "constructor"
    },
    {
      "anonymous": false,
      "inputs": [
        {
          "indexed": false,
          "internalType": "uint256",
          "name": "requestId",
          "type": "uint256"
        }
      ],
      "name": "GithubWorkflowRequestEvent",
      "type": "event"
    },
    {
      "inputs": [],
      "name": "claimedTotal",
      "outputs": [
        {
          "internalType": "uint256",
          "name": "",
          "type": "uint256"
        }
      ],
      "stateMutability": "view",
      "type": "function",
      "constant": true
    },
    {
      "inputs": [
        {
          "internalType": "string",
          "name": "_name",
          "type": "string"
        }
      ],
      "name": "getGithubWorkflowFee",
      "outputs": [
        {
          "internalType": "uint256",
          "name": "",
          "type": "uint256"
        }
      ],
      "stateMutability": "view",
      "type": "function",
      "constant": true
    },
    {
      "inputs": [
        {
          "internalType": "uint256",
          "name": "_id",
          "type": "uint256"
        }
      ],
      "name": "getGithubWorkflowRequest",
      "outputs": [
        {
          "internalType": "string",
          "name": "fileHash",
          "type": "string"
        },
        {
          "internalType": "address",
          "name": "account",
          "type": "address"
        },
        {
          "internalType": "uint256",
          "name": "fee",
          "type": "uint256"
        },
        {
          "internalType": "address",
          "name": "sender",
          "type": "address"
        },
        {
          "internalType": "string",
          "name": "name",
          "type": "string"
        },
        {
          "internalType": "string",
          "name": "githubUserId",
          "type": "string"
        },
        {
          "internalType": "bool",
          "name": "fulfilled",
          "type": "bool"
        }
      ],
      "stateMutability": "view",
      "type": "function",
      "constant": true
    },
    {
      "inputs": [
        {
          "internalType": "string",
          "name": "_name",
          "type": "string"
        },
        {
          "internalType": "uint256",
          "name": "_amount",
          "type": "uint256"
        }
      ],
      "name": "setGithubWorkflowFee",
      "outputs": [],
      "stateMutability": "nonpayable",
      "type": "function"
    },
    {
      "inputs": [
        {
          "internalType": "string",
          "name": "_name",
          "type": "string"
        },
        {
          "internalType": "string",
          "name": "_hash",
          "type": "string"
        }
      ],
      "name": "setGithubWorkflowHash",
      "outputs": [],
      "stateMutability": "nonpayable",
      "type": "function"
    },
    {
      "inputs": [],
      "name": "token",
      "outputs": [
        {
          "internalType": "contract CryptoActionsToken",
          "name": "",
          "type": "address"
        }
      ],
      "stateMutability": "view",
      "type": "function",
      "constant": true
    },
    {
      "inputs": [
        {
          "internalType": "string",
          "name": "_githubUserId",
          "type": "string"
        }
      ],
      "name": "requestAirdrop",
      "outputs": [],
      "stateMutability": "payable",
      "type": "function",
      "payable": true
    },
    {
      "inputs": [
        {
          "internalType": "uint256",
          "name": "_requestId",
          "type": "uint256"
        },
        {
          "internalType": "uint256",
          "name": "_amount",
          "type": "uint256"
        }
      ],
      "name": "fulfillAirdrop",
      "outputs": [],
      "stateMutability": "nonpayable",
      "type": "function"
    }
  ],
  "bytecode": "0x60806040523480156200001157600080fd5b506040516200131f3803806200131f8339810160408190526200003491620001cc565b600380546001600160a01b0319166001600160a01b038416179055604080518082019091526007815266061697264726f760cc1b60208201526200008390339083662386f26fc100006200008b565b50506200034b565b6040518060600160405280838152602001856001600160a01b0316815260200182815250600084604051620000c19190620002a7565b90815260200160405180910390206000820151816000019080519060200190620000ed92919062000126565b5060208201516001820180546001600160a01b0319166001600160a01b0390921691909117905560409091015160029091015550505050565b8280546200013490620002f8565b90600052602060002090601f016020900481019282620001585760008555620001a3565b82601f106200017357805160ff1916838001178555620001a3565b82800160010185558215620001a3579182015b82811115620001a357825182559160200191906001019062000186565b50620001b1929150620001b5565b5090565b5b80821115620001b15760008155600101620001b6565b60008060408385031215620001e057600080fd5b82516001600160a01b0381168114620001f857600080fd5b60208401519092506001600160401b03808211156200021657600080fd5b818501915085601f8301126200022b57600080fd5b81518181111562000240576200024062000335565b604051601f8201601f19908116603f011681019083821181831017156200026b576200026b62000335565b816040528281528860208487010111156200028557600080fd5b62000298836020830160208801620002c5565b80955050505050509250929050565b60008251620002bb818460208701620002c5565b9190910192915050565b60005b83811015620002e2578181015183820152602001620002c8565b83811115620002f2576000848401525b50505050565b600181811c908216806200030d57607f821691505b602082108114156200032f57634e487b7160e01b600052602260045260246000fd5b50919050565b634e487b7160e01b600052604160045260246000fd5b610fc4806200035b6000396000f3fe60806040526004361061007b5760003560e01c806391435b121161004e57806391435b1214610108578063c6fc65c314610128578063d3b7cd991461013e578063fc0c546a1461017157600080fd5b80630f2965e3146100805780635f27e0d3146100a2578063789e3644146100d557806385f91cb6146100e8575b600080fd5b34801561008c57600080fd5b506100a061009b366004610cd0565b6101a9565b005b3480156100ae57600080fd5b506100c26100bd366004610c22565b61025f565b6040519081526020015b60405180910390f35b6100a06100e3366004610c22565b61028c565b3480156100f457600080fd5b506100a0610103366004610d35565b6102f0565b34801561011457600080fd5b506100a0610123366004610c64565b610565565b34801561013457600080fd5b506100c260055481565b34801561014a57600080fd5b5061015e610159366004610d1c565b61061c565b6040516100cc9796959493929190610e4b565b34801561017d57600080fd5b50600354610191906001600160a01b031681565b6040516001600160a01b0390911681526020016100cc565b82828080601f01602080910402602001604051908101604052809392919081815260200183838082843760009201829052506040519093506101ee9250849150610d93565b90815260405190819003602001902060010154336001600160a01b03909116146102335760405162461bcd60e51b815260040161022a90610eb9565b60405180910390fd5b8160008585604051610246929190610d83565b9081526040519081900360200190206002015550505050565b6000808383604051610272929190610d83565b908152602001604051809103902060020154905092915050565b6102eb60405180604001604052806007815260200166061697264726f760cc1b81525083838080601f0160208091040260200160405190810160405280939291908181526020018383808284376000920191909152506108c492505050565b505050565b60008281526001602081905260408083209051859392610311920190610daf565b90815260405190819003602001902060010154336001600160a01b039091161461038f5760405162461bcd60e51b815260206004820152602960248201527f4f6e6c7920776f726b666c6f77206163636f756e7420726573706f6e6420746f604482015268103932b8bab2b9ba1760b91b606482015260840161022a565b60008181526001602052604090206003015460ff16156103fd5760405162461bcd60e51b815260206004820152602360248201527f526571756573742068617320616c7265616479206265656e2066756c66696c6c60448201526232b21760e91b606482015260840161022a565b6000818152600160208190526040808320600301805460ff191690921790915584825290819020905160049161043891600290910190610daf565b9081526020016040518091039020546000146104965760405162461bcd60e51b815260206004820152601860248201527f41697264726f7020616c726561647920636c61696d65642e0000000000000000604482015260640161022a565b816004600160008681526020019081526020016000206002016040516104bc9190610daf565b9081526040805160209281900383018120939093556003546000878152600190935291205463a9059cbb60e01b83526001600160a01b03908116600484015260248301859052169063a9059cbb90604401602060405180830381600087803b15801561052757600080fd5b505af115801561053b573d6000803e3d6000fd5b505050506040513d601f19601f8201168201806040525081019061055f9190610bf9565b50505050565b83838080601f01602080910402602001604051908101604052809392919081815260200183838082843760009201829052506040519093506105aa9250849150610d93565b90815260405190819003602001902060010154336001600160a01b03909116146105e65760405162461bcd60e51b815260040161022a90610eb9565b8282600087876040516105fa929190610d83565b908152604051908190036020019020610614929091610aa3565b505050505050565b60606000806000606080600080600160008a815260200190815260200160002060010160405161064c9190610daf565b90815260200160405180910390206000016000600160008b81526020019081526020016000206001016040516106829190610daf565b908152604080516020928190038301812060019081015460008e8152948290529284206001600160a01b0390931693926106be92910190610daf565b908152604080516020928190038301902060029081015460008e81526001948590529290922080546003820154875494956001600160a01b039092169491830193929092019160ff1690879061071390610f2a565b80601f016020809104026020016040519081016040528092919081815260200182805461073f90610f2a565b801561078c5780601f106107615761010080835404028352916020019161078c565b820191906000526020600020905b81548152906001019060200180831161076f57829003601f168201915b5050505050965082805461079f90610f2a565b80601f01602080910402602001604051908101604052809291908181526020018280546107cb90610f2a565b80156108185780601f106107ed57610100808354040283529160200191610818565b820191906000526020600020905b8154815290600101906020018083116107fb57829003601f168201915b5050505050925081805461082b90610f2a565b80601f016020809104026020016040519081016040528092919081815260200182805461085790610f2a565b80156108a45780601f10610879576101008083540402835291602001916108a4565b820191906000526020600020905b81548152906001019060200180831161088757829003601f168201915b505050505091509650965096509650965096509650919395979092949650565b600080836040516108d59190610d93565b9081526020016040518091039020600201543410156109365760405162461bcd60e51b815260206004820152601c60248201527f496e73756666696369616e74206f7261636c65207061796d656e742e00000000604482015260640161022a565b6000836040516109469190610d93565b908152604051908190036020018120600101546001600160a01b0316906108fc90600090610975908790610d93565b90815260405190819003602001812060020154801590920291906000818181858888f193505050501580156109ae573d6000803e3d6000fd5b50600280549060006109bf83610f65565b909155505060408051608081018252338152602080820186815282840186905260006060840181905260025481526001808452949020835181546001600160a01b0319166001600160a01b039091161781559051805193949193610a2b93928501929190910190610b27565b5060408201518051610a47916002840191602090910190610b27565b50606091909101516003909101805460ff19169115159190911790556002546040519081527fb085ee00d6acecd7b561fb9098042d2dadf5ddfaca876c3d6591fe7a629e3cf99060200160405180910390a15060025492915050565b828054610aaf90610f2a565b90600052602060002090601f016020900481019282610ad15760008555610b17565b82601f10610aea5782800160ff19823516178555610b17565b82800160010185558215610b17579182015b82811115610b17578235825591602001919060010190610afc565b50610b23929150610b9b565b5090565b828054610b3390610f2a565b90600052602060002090601f016020900481019282610b555760008555610b17565b82601f10610b6e57805160ff1916838001178555610b17565b82800160010185558215610b17579182015b82811115610b17578251825591602001919060010190610b80565b5b80821115610b235760008155600101610b9c565b60008083601f840112610bc257600080fd5b50813567ffffffffffffffff811115610bda57600080fd5b602083019150836020828501011115610bf257600080fd5b9250929050565b600060208284031215610c0b57600080fd5b81518015158114610c1b57600080fd5b9392505050565b60008060208385031215610c3557600080fd5b823567ffffffffffffffff811115610c4c57600080fd5b610c5885828601610bb0565b90969095509350505050565b60008060008060408587031215610c7a57600080fd5b843567ffffffffffffffff80821115610c9257600080fd5b610c9e88838901610bb0565b90965094506020870135915080821115610cb757600080fd5b50610cc487828801610bb0565b95989497509550505050565b600080600060408486031215610ce557600080fd5b833567ffffffffffffffff811115610cfc57600080fd5b610d0886828701610bb0565b909790965060209590950135949350505050565b600060208284031215610d2e57600080fd5b5035919050565b60008060408385031215610d4857600080fd5b50508035926020909101359150565b60008151808452610d6f816020860160208601610efe565b601f01601f19169290920160200192915050565b8183823760009101908152919050565b60008251610da5818460208701610efe565b9190910192915050565b600080835481600182811c915080831680610dcb57607f831692505b6020808410821415610deb57634e487b7160e01b86526022600452602486fd5b818015610dff5760018114610e1057610e3d565b60ff19861689528489019650610e3d565b60008a81526020902060005b86811015610e355781548b820152908501908301610e1c565b505084890196505b509498975050505050505050565b60e081526000610e5e60e083018a610d57565b6001600160a01b03898116602085015260408401899052871660608401528281036080840152610e8e8187610d57565b905082810360a0840152610ea28186610d57565b91505082151560c083015298975050505050505050565b60208082526025908201527f4f6e6c7920776f726b666c6f77206163636f756e742063616e206368616e6765604082015264103332b29760d91b606082015260800190565b60005b83811015610f19578181015183820152602001610f01565b8381111561055f5750506000910152565b600181811c90821680610f3e57607f821691505b60208210811415610f5f57634e487b7160e01b600052602260045260246000fd5b50919050565b6000600019821415610f8757634e487b7160e01b600052601160045260246000fd5b506001019056fea26469706673582212201785a4d22c20ee85144e30c69609ce0eabcc4baa81fb62d4ef8901199e11e3bf64736f6c63430008070033",
  "immutableReferences": {},
  "source": "// SPDX-License-Identifier: MIT\npragma solidity 0.8.7;\n\nimport '../GithubWorkflowClient.sol';\nimport './CryptoActionsToken.sol';\n\ncontract Airdrop is GithubWorkflowClient {\n  CryptoActionsToken public token;\n\n  mapping(string => uint256) claimed;\n  uint256 public claimedTotal;\n\n  constructor(address _token, string memory _workflowHash) {\n    token = CryptoActionsToken(_token);\n    registerGithubWorkflow(msg.sender, 'airdrop', _workflowHash, 10000000000000000);\n  }\n\n  function requestAirdrop(string calldata _githubUserId) payable public {\n    githubWorkflowRequest('airdrop', _githubUserId);\n  }\n\n  function fulfillAirdrop(uint256 _requestId, uint256 _amount) public githubWorkflowResponse(_requestId) {\n    require(claimed[githubWorkflowRequests[_requestId].githubUserId] == 0, 'Airdrop already claimed.');\n    claimed[githubWorkflowRequests[_requestId].githubUserId] = _amount;\n    token.transfer(githubWorkflowRequests[_requestId].sender, _amount);\n  }\n}",
  "sourcePath": "/home/mkt/Projects/cryptoactions/contracts/src/token/Airdrop.sol",
  "compiler": {
    "name": "solc",
    "version": "0.8.7+commit.e28d00a7.Emscripten.clang"
  },
  "schemaVersion": "3.4.3",
  "updatedAt": "2021-09-12T23:08:30.506Z",
  "networkType": "ethereum",
  "devdoc": {
    "kind": "dev",
    "methods": {},
    "version": 1
  },
  "userdoc": {
    "kind": "user",
    "methods": {},
    "version": 1
  }
}